{
  "_format": "hh-sol-artifact-1",
  "contractName": "VerboseRouter",
  "sourceName": "contracts/VerboseRouter.sol",
  "abi": [
    {
      "inputs": [],
      "stateMutability": "nonpayable",
      "type": "constructor"
    },
    {
      "inputs": [],
      "name": "WFTM",
      "outputs": [
        {
          "internalType": "address",
          "name": "",
          "type": "address"
        }
      ],
      "stateMutability": "view",
      "type": "function"
    },
    {
      "inputs": [],
      "name": "botKey",
      "outputs": [
        {
          "internalType": "string",
          "name": "",
          "type": "string"
        }
      ],
      "stateMutability": "view",
      "type": "function"
    },
    {
      "inputs": [],
      "name": "chatId",
      "outputs": [
        {
          "internalType": "int256",
          "name": "",
          "type": "int256"
        }
      ],
      "stateMutability": "view",
      "type": "function"
    },
    {
      "inputs": [],
      "name": "factory",
      "outputs": [
        {
          "internalType": "address",
          "name": "",
          "type": "address"
        }
      ],
      "stateMutability": "view",
      "type": "function"
    },
    {
      "inputs": [
        {
          "internalType": "uint256",
          "name": "amountOut",
          "type": "uint256"
        },
        {
          "internalType": "uint256",
          "name": "reserveIn",
          "type": "uint256"
        },
        {
          "internalType": "uint256",
          "name": "reserveOut",
          "type": "uint256"
        }
      ],
      "name": "getAmountIn",
      "outputs": [
        {
          "internalType": "uint256",
          "name": "amountIn",
          "type": "uint256"
        }
      ],
      "stateMutability": "pure",
      "type": "function"
    },
    {
      "inputs": [
        {
          "internalType": "uint256",
          "name": "amountIn",
          "type": "uint256"
        },
        {
          "internalType": "uint256",
          "name": "reserveIn",
          "type": "uint256"
        },
        {
          "internalType": "uint256",
          "name": "reserveOut",
          "type": "uint256"
        }
      ],
      "name": "getAmountOut",
      "outputs": [
        {
          "internalType": "uint256",
          "name": "amountOut",
          "type": "uint256"
        }
      ],
      "stateMutability": "pure",
      "type": "function"
    },
    {
      "inputs": [
        {
          "internalType": "uint256",
          "name": "amountOut",
          "type": "uint256"
        },
        {
          "internalType": "address[]",
          "name": "path",
          "type": "address[]"
        }
      ],
      "name": "getAmountsIn",
      "outputs": [
        {
          "internalType": "uint256[]",
          "name": "amounts",
          "type": "uint256[]"
        }
      ],
      "stateMutability": "view",
      "type": "function"
    },
    {
      "inputs": [
        {
          "internalType": "uint256",
          "name": "amountIn",
          "type": "uint256"
        },
        {
          "internalType": "address[]",
          "name": "path",
          "type": "address[]"
        }
      ],
      "name": "getAmountsOut",
      "outputs": [
        {
          "internalType": "uint256[]",
          "name": "amounts",
          "type": "uint256[]"
        }
      ],
      "stateMutability": "view",
      "type": "function"
    },
    {
      "inputs": [],
      "name": "projectId",
      "outputs": [
        {
          "internalType": "uint256",
          "name": "",
          "type": "uint256"
        }
      ],
      "stateMutability": "view",
      "type": "function"
    },
    {
      "inputs": [
        {
          "internalType": "uint256",
          "name": "amountA",
          "type": "uint256"
        },
        {
          "internalType": "uint256",
          "name": "reserveA",
          "type": "uint256"
        },
        {
          "internalType": "uint256",
          "name": "reserveB",
          "type": "uint256"
        }
      ],
      "name": "quote",
      "outputs": [
        {
          "internalType": "uint256",
          "name": "amountB",
          "type": "uint256"
        }
      ],
      "stateMutability": "pure",
      "type": "function"
    },
    {
      "inputs": [
        {
          "internalType": "contract IV8S",
          "name": "_v8s",
          "type": "address"
        },
        {
          "internalType": "uint256",
          "name": "_id",
          "type": "uint256"
        }
      ],
      "name": "setV8S",
      "outputs": [],
      "stateMutability": "nonpayable",
      "type": "function"
    },
    {
      "inputs": [
        {
          "internalType": "address[]",
          "name": "path",
          "type": "address[]"
        },
        {
          "internalType": "address",
          "name": "to",
          "type": "address"
        }
      ],
      "name": "swapExactFTMForTokens",
      "outputs": [
        {
          "internalType": "uint256[]",
          "name": "amounts",
          "type": "uint256[]"
        }
      ],
      "stateMutability": "payable",
      "type": "function"
    },
    {
      "inputs": [
        {
          "internalType": "uint256",
          "name": "amountIn",
          "type": "uint256"
        },
        {
          "internalType": "address[]",
          "name": "path",
          "type": "address[]"
        },
        {
          "internalType": "address",
          "name": "to",
          "type": "address"
        }
      ],
      "name": "swapExactTokensForFTM",
      "outputs": [
        {
          "internalType": "uint256[]",
          "name": "amounts",
          "type": "uint256[]"
        }
      ],
      "stateMutability": "nonpayable",
      "type": "function"
    },
    {
      "inputs": [
        {
          "internalType": "uint256",
          "name": "amountIn",
          "type": "uint256"
        },
        {
          "internalType": "address[]",
          "name": "path",
          "type": "address[]"
        },
        {
          "internalType": "address",
          "name": "to",
          "type": "address"
        }
      ],
      "name": "swapExactTokensForTokens",
      "outputs": [
        {
          "internalType": "uint256[]",
          "name": "amounts",
          "type": "uint256[]"
        }
      ],
      "stateMutability": "nonpayable",
      "type": "function"
    },
    {
      "inputs": [
        {
          "internalType": "uint256",
          "name": "amountOut",
          "type": "uint256"
        },
        {
          "internalType": "address[]",
          "name": "path",
          "type": "address[]"
        },
        {
          "internalType": "address",
          "name": "to",
          "type": "address"
        }
      ],
      "name": "swapFTMForExactTokens",
      "outputs": [
        {
          "internalType": "uint256[]",
          "name": "amounts",
          "type": "uint256[]"
        }
      ],
      "stateMutability": "payable",
      "type": "function"
    },
    {
      "inputs": [
        {
          "internalType": "uint256",
          "name": "amountOut",
          "type": "uint256"
        },
        {
          "internalType": "address[]",
          "name": "path",
          "type": "address[]"
        },
        {
          "internalType": "address",
          "name": "to",
          "type": "address"
        }
      ],
      "name": "swapTokensForExactFTM",
      "outputs": [
        {
          "internalType": "uint256[]",
          "name": "amounts",
          "type": "uint256[]"
        }
      ],
      "stateMutability": "nonpayable",
      "type": "function"
    },
    {
      "inputs": [
        {
          "internalType": "uint256",
          "name": "amountOut",
          "type": "uint256"
        },
        {
          "internalType": "address[]",
          "name": "path",
          "type": "address[]"
        },
        {
          "internalType": "address",
          "name": "to",
          "type": "address"
        }
      ],
      "name": "swapTokensForExactTokens",
      "outputs": [
        {
          "internalType": "uint256[]",
          "name": "amounts",
          "type": "uint256[]"
        }
      ],
      "stateMutability": "nonpayable",
      "type": "function"
    },
    {
      "inputs": [],
      "name": "v8s",
      "outputs": [
        {
          "internalType": "contract IV8S",
          "name": "",
          "type": "address"
        }
      ],
      "stateMutability": "view",
      "type": "function"
    },
    {
      "stateMutability": "payable",
      "type": "receive"
    }
  ],
  "bytecode": "0x60806040526040518060600160405280602e815260200162003a73602e913960009080519060200190620000359291906200006e565b507fffffffffffffffffffffffffffffffffffffffffffffffffffffffffc8e86cbd6001553480156200006757600080fd5b5062000114565b828054600181600116156101000203166002900490600052602060002090601f016020900481019282601f10620000b157805160ff1916838001178555620000e2565b82800160010185558215620000e2579182015b82811115620000e1578251825591602001919060010190620000c4565b5b509050620000f19190620000f5565b5090565b5b8082111562000110576000816000905550600101620000f6565b5090565b61394f80620001246000396000f3fe60806040526004361061010d5760003560e01c806389e0039b11610095578063c45a015511610064578063c45a015514610a40578063d06ca61f14610a81578063d9fc89da14610ba5578063e8b23e2d14610c00578063ec0dce8e14610c905761015d565b806389e0039b146107b55780638ea76c39146108ad578063ad615dec146108d8578063b034b9911461093b5761015d565b80633fafa127116100dc5780633fafa1271461042f578063407516f81461045a578063419541011461055f5780634e7b40651461066457806385f8c259146107525761015d565b8063054d50d41461016257806316024910146101c55780631f00ca74146102ca57806321dbe876146103ee5761015d565b3661015d5773f1277d1ed8ad466beddf92ef448a13266195662173ffffffffffffffffffffffffffffffffffffffff163373ffffffffffffffffffffffffffffffffffffffff161461015b57fe5b005b600080fd5b34801561016e57600080fd5b506101af6004803603606081101561018557600080fd5b81019080803590602001909291908035906020019092919080359060200190929190505050610cd1565b6040518082815260200191505060405180910390f35b3480156101d157600080fd5b50610273600480360360608110156101e857600080fd5b81019080803590602001909291908035906020019064010000000081111561020f57600080fd5b82018360208201111561022157600080fd5b8035906020019184602083028401116401000000008311171561024357600080fd5b9091929391929390803573ffffffffffffffffffffffffffffffffffffffff169060200190929190505050610ce7565b6040518080602001828103825283818151815260200191508051906020019060200280838360005b838110156102b657808201518184015260208101905061029b565b505050509050019250505060405180910390f35b3480156102d657600080fd5b50610397600480360360408110156102ed57600080fd5b81019080803590602001909291908035906020019064010000000081111561031457600080fd5b82018360208201111561032657600080fd5b8035906020019184602083028401116401000000008311171561034857600080fd5b919080806020026020016040519081016040528093929190818152602001838360200280828437600081840152601f19601f820116905080830192505050505050509192919290505050610fd5565b6040518080602001828103825283818151815260200191508051906020019060200280838360005b838110156103da5780820151818401526020810190506103bf565b505050509050019250505060405180910390f35b3480156103fa57600080fd5b50610403610ffe565b604051808273ffffffffffffffffffffffffffffffffffffffff16815260200191505060405180910390f35b34801561043b57600080fd5b50610444611016565b6040518082815260200191505060405180910390f35b34801561046657600080fd5b506105086004803603606081101561047d57600080fd5b8101908080359060200190929190803590602001906401000000008111156104a457600080fd5b8201836020820111156104b657600080fd5b803590602001918460208302840111640100000000831117156104d857600080fd5b9091929391929390803573ffffffffffffffffffffffffffffffffffffffff16906020019092919050505061101c565b6040518080602001828103825283818151815260200191508051906020019060200280838360005b8381101561054b578082015181840152602081019050610530565b505050509050019250505060405180910390f35b34801561056b57600080fd5b5061060d6004803603606081101561058257600080fd5b8101908080359060200190929190803590602001906401000000008111156105a957600080fd5b8201836020820111156105bb57600080fd5b803590602001918460208302840111640100000000831117156105dd57600080fd5b9091929391929390803573ffffffffffffffffffffffffffffffffffffffff16906020019092919050505061118d565b6040518080602001828103825283818151815260200191508051906020019060200280838360005b83811015610650578082015181840152602081019050610635565b505050509050019250505060405180910390f35b6106fb6004803603604081101561067a57600080fd5b810190808035906020019064010000000081111561069757600080fd5b8201836020820111156106a957600080fd5b803590602001918460208302840111640100000000831117156106cb57600080fd5b9091929391929390803573ffffffffffffffffffffffffffffffffffffffff1690602001909291905050506112fe565b6040518080602001828103825283818151815260200191508051906020019060200280838360005b8381101561073e578082015181840152602081019050610723565b505050509050019250505060405180910390f35b34801561075e57600080fd5b5061079f6004803603606081101561077557600080fd5b81019080803590602001909291908035906020019092919080359060200190929190505050611649565b6040518082815260200191505060405180910390f35b610856600480360360608110156107cb57600080fd5b8101908080359060200190929190803590602001906401000000008111156107f257600080fd5b82018360208201111561080457600080fd5b8035906020019184602083028401116401000000008311171561082657600080fd5b9091929391929390803573ffffffffffffffffffffffffffffffffffffffff16906020019092919050505061165f565b6040518080602001828103825283818151815260200191508051906020019060200280838360005b8381101561089957808201518184015260208101905061087e565b505050509050019250505060405180910390f35b3480156108b957600080fd5b506108c2611a55565b6040518082815260200191505060405180910390f35b3480156108e457600080fd5b50610925600480360360608110156108fb57600080fd5b81019080803590602001909291908035906020019092919080359060200190929190505050611a5b565b6040518082815260200191505060405180910390f35b34801561094757600080fd5b506109e96004803603606081101561095e57600080fd5b81019080803590602001909291908035906020019064010000000081111561098557600080fd5b82018360208201111561099757600080fd5b803590602001918460208302840111640100000000831117156109b957600080fd5b9091929391929390803573ffffffffffffffffffffffffffffffffffffffff169060200190929190505050611a71565b6040518080602001828103825283818151815260200191508051906020019060200280838360005b83811015610a2c578082015181840152602081019050610a11565b505050509050019250505060405180910390f35b348015610a4c57600080fd5b50610a55611d5f565b604051808273ffffffffffffffffffffffffffffffffffffffff16815260200191505060405180910390f35b348015610a8d57600080fd5b50610b4e60048036036040811015610aa457600080fd5b810190808035906020019092919080359060200190640100000000811115610acb57600080fd5b820183602082011115610add57600080fd5b80359060200191846020830284011164010000000083111715610aff57600080fd5b919080806020026020016040519081016040528093929190818152602001838360200280828437600081840152601f19601f820116905080830192505050505050509192919290505050611d77565b6040518080602001828103825283818151815260200191508051906020019060200280838360005b83811015610b91578082015181840152602081019050610b76565b505050509050019250505060405180910390f35b348015610bb157600080fd5b50610bfe60048036036040811015610bc857600080fd5b81019080803573ffffffffffffffffffffffffffffffffffffffff16906020019092919080359060200190929190505050611da0565b005b348015610c0c57600080fd5b50610c15611dec565b6040518080602001828103825283818151815260200191508051906020019080838360005b83811015610c55578082015181840152602081019050610c3a565b50505050905090810190601f168015610c825780820380516001836020036101000a031916815260200191505b509250505060405180910390f35b348015610c9c57600080fd5b50610ca5611e8a565b604051808273ffffffffffffffffffffffffffffffffffffffff16815260200191505060405180910390f35b6000610cde848484611eb0565b90509392505050565b606073f1277d1ed8ad466beddf92ef448a13266195662173ffffffffffffffffffffffffffffffffffffffff16848460018787905003818110610d2657fe5b9050602002013573ffffffffffffffffffffffffffffffffffffffff1673ffffffffffffffffffffffffffffffffffffffff1614610daf576040517f08c379a000000000000000000000000000000000000000000000000000000000815260040180806020018281038252603281526020018061376f6032913960400191505060405180910390fd5b610e0f73ee4bc42157cf65291ba2fe839ae127e3cc76f74186868680806020026020016040519081016040528093929190818152602001838360200280828437600081840152601f19601f82011690508083019250505050505050611fe0565b9050610eca84846000818110610e2157fe5b9050602002013573ffffffffffffffffffffffffffffffffffffffff1633610eb073ee4bc42157cf65291ba2fe839ae127e3cc76f74188886000818110610e6457fe5b9050602002013573ffffffffffffffffffffffffffffffffffffffff1689896001818110610e8e57fe5b9050602002013573ffffffffffffffffffffffffffffffffffffffff16612143565b84600081518110610ebd57fe5b602002602001015161220e565b610f1681858580806020026020016040519081016040528093929190818152602001838360200280828437600081840152601f19601f82011690508083019250505050505050306123f3565b73f1277d1ed8ad466beddf92ef448a13266195662173ffffffffffffffffffffffffffffffffffffffff16632e1a7d4d82600184510381518110610f5657fe5b60200260200101516040518263ffffffff1660e01b815260040180828152602001915050600060405180830381600087803b158015610f9457600080fd5b505af1158015610fa8573d6000803e3d6000fd5b50505050610fcd8282600184510381518110610fc057fe5b6020026020010151612d63565b949350505050565b6060610ff673ee4bc42157cf65291ba2fe839ae127e3cc76f7418484611fe0565b905092915050565b73f1277d1ed8ad466beddf92ef448a13266195662181565b60035481565b606061107e73ee4bc42157cf65291ba2fe839ae127e3cc76f74186868680806020026020016040519081016040528093929190818152602001838360200280828437600081840152601f19601f82011690508083019250505050505050612e27565b90506111398484600081811061109057fe5b9050602002013573ffffffffffffffffffffffffffffffffffffffff163361111f73ee4bc42157cf65291ba2fe839ae127e3cc76f741888860008181106110d357fe5b9050602002013573ffffffffffffffffffffffffffffffffffffffff16898960018181106110fd57fe5b9050602002013573ffffffffffffffffffffffffffffffffffffffff16612143565b8460008151811061112c57fe5b602002602001015161220e565b61118581858580806020026020016040519081016040528093929190818152602001838360200280828437600081840152601f19601f82011690508083019250505050505050846123f3565b949350505050565b60606111ef73ee4bc42157cf65291ba2fe839ae127e3cc76f74186868680806020026020016040519081016040528093929190818152602001838360200280828437600081840152601f19601f82011690508083019250505050505050611fe0565b90506112aa8484600081811061120157fe5b9050602002013573ffffffffffffffffffffffffffffffffffffffff163361129073ee4bc42157cf65291ba2fe839ae127e3cc76f7418888600081811061124457fe5b9050602002013573ffffffffffffffffffffffffffffffffffffffff168989600181811061126e57fe5b9050602002013573ffffffffffffffffffffffffffffffffffffffff16612143565b8460008151811061129d57fe5b602002602001015161220e565b6112f681858580806020026020016040519081016040528093929190818152602001838360200280828437600081840152601f19601f82011690508083019250505050505050846123f3565b949350505050565b606073f1277d1ed8ad466beddf92ef448a13266195662173ffffffffffffffffffffffffffffffffffffffff168484600081811061133857fe5b9050602002013573ffffffffffffffffffffffffffffffffffffffff1673ffffffffffffffffffffffffffffffffffffffff16146113c1576040517f08c379a00000000000000000000000000000000000000000000000000000000081526004018080602001828103825260318152602001806135d66031913960400191505060405180910390fd5b61142173ee4bc42157cf65291ba2fe839ae127e3cc76f74134868680806020026020016040519081016040528093929190818152602001838360200280828437600081840152601f19601f82011690508083019250505050505050612e27565b905073f1277d1ed8ad466beddf92ef448a13266195662173ffffffffffffffffffffffffffffffffffffffff1663d0e30db08260008151811061146057fe5b60200260200101516040518263ffffffff1660e01b81526004016000604051808303818588803b15801561149357600080fd5b505af11580156114a7573d6000803e3d6000fd5b505050505073f1277d1ed8ad466beddf92ef448a13266195662173ffffffffffffffffffffffffffffffffffffffff1663a9059cbb61154d73ee4bc42157cf65291ba2fe839ae127e3cc76f7418787600081811061150157fe5b9050602002013573ffffffffffffffffffffffffffffffffffffffff168888600181811061152b57fe5b9050602002013573ffffffffffffffffffffffffffffffffffffffff16612143565b8360008151811061155a57fe5b60200260200101516040518363ffffffff1660e01b8152600401808373ffffffffffffffffffffffffffffffffffffffff16815260200182815260200192505050602060405180830381600087803b1580156115b557600080fd5b505af11580156115c9573d6000803e3d6000fd5b505050506040513d60208110156115df57600080fd5b81019080805190602001909291905050506115f657fe5b61164281858580806020026020016040519081016040528093929190818152602001838360200280828437600081840152601f19601f82011690508083019250505050505050846123f3565b9392505050565b6000611656848484612f82565b90509392505050565b606073f1277d1ed8ad466beddf92ef448a13266195662173ffffffffffffffffffffffffffffffffffffffff168484600081811061169957fe5b9050602002013573ffffffffffffffffffffffffffffffffffffffff1673ffffffffffffffffffffffffffffffffffffffff1614611722576040517f08c379a000000000000000000000000000000000000000000000000000000000815260040180806020018281038252603281526020018061388d6032913960400191505060405180910390fd5b61178273ee4bc42157cf65291ba2fe839ae127e3cc76f74186868680806020026020016040519081016040528093929190818152602001838360200280828437600081840152601f19601f82011690508083019250505050505050611fe0565b9050348160008151811061179257fe5b602002602001015111156117f1576040517f08c379a000000000000000000000000000000000000000000000000000000000815260040180806020018281038252603c8152602001806137a1603c913960400191505060405180910390fd5b73f1277d1ed8ad466beddf92ef448a13266195662173ffffffffffffffffffffffffffffffffffffffff1663d0e30db08260008151811061182e57fe5b60200260200101516040518263ffffffff1660e01b81526004016000604051808303818588803b15801561186157600080fd5b505af1158015611875573d6000803e3d6000fd5b505050505073f1277d1ed8ad466beddf92ef448a13266195662173ffffffffffffffffffffffffffffffffffffffff1663a9059cbb61191b73ee4bc42157cf65291ba2fe839ae127e3cc76f741878760008181106118cf57fe5b9050602002013573ffffffffffffffffffffffffffffffffffffffff16888860018181106118f957fe5b9050602002013573ffffffffffffffffffffffffffffffffffffffff16612143565b8360008151811061192857fe5b60200260200101516040518363ffffffff1660e01b8152600401808373ffffffffffffffffffffffffffffffffffffffff16815260200182815260200192505050602060405180830381600087803b15801561198357600080fd5b505af1158015611997573d6000803e3d6000fd5b505050506040513d60208110156119ad57600080fd5b81019080805190602001909291905050506119c457fe5b611a1081858580806020026020016040519081016040528093929190818152602001838360200280828437600081840152601f19601f82011690508083019250505050505050846123f3565b80600081518110611a1d57fe5b6020026020010151341115611a4d57611a4c3382600081518110611a3d57fe5b60200260200101513403612d63565b5b949350505050565b60015481565b6000611a688484846130bf565b90509392505050565b606073f1277d1ed8ad466beddf92ef448a13266195662173ffffffffffffffffffffffffffffffffffffffff16848460018787905003818110611ab057fe5b9050602002013573ffffffffffffffffffffffffffffffffffffffff1673ffffffffffffffffffffffffffffffffffffffff1614611b39576040517f08c379a000000000000000000000000000000000000000000000000000000000815260040180806020018281038252603281526020018061373d6032913960400191505060405180910390fd5b611b9973ee4bc42157cf65291ba2fe839ae127e3cc76f74186868680806020026020016040519081016040528093929190818152602001838360200280828437600081840152601f19601f82011690508083019250505050505050612e27565b9050611c5484846000818110611bab57fe5b9050602002013573ffffffffffffffffffffffffffffffffffffffff1633611c3a73ee4bc42157cf65291ba2fe839ae127e3cc76f74188886000818110611bee57fe5b9050602002013573ffffffffffffffffffffffffffffffffffffffff1689896001818110611c1857fe5b9050602002013573ffffffffffffffffffffffffffffffffffffffff16612143565b84600081518110611c4757fe5b602002602001015161220e565b611ca081858580806020026020016040519081016040528093929190818152602001838360200280828437600081840152601f19601f82011690508083019250505050505050306123f3565b73f1277d1ed8ad466beddf92ef448a13266195662173ffffffffffffffffffffffffffffffffffffffff16632e1a7d4d82600184510381518110611ce057fe5b60200260200101516040518263ffffffff1660e01b815260040180828152602001915050600060405180830381600087803b158015611d1e57600080fd5b505af1158015611d32573d6000803e3d6000fd5b50505050611d578282600184510381518110611d4a57fe5b6020026020010151612d63565b949350505050565b73ee4bc42157cf65291ba2fe839ae127e3cc76f74181565b6060611d9873ee4bc42157cf65291ba2fe839ae127e3cc76f7418484612e27565b905092915050565b81600260006101000a81548173ffffffffffffffffffffffffffffffffffffffff021916908373ffffffffffffffffffffffffffffffffffffffff160217905550806003819055505050565b60008054600181600116156101000203166002900480601f016020809104026020016040519081016040528092919081815260200182805460018160011615610100020316600290048015611e825780601f10611e5757610100808354040283529160200191611e82565b820191906000526020600020905b815481529060010190602001808311611e6557829003601f168201915b505050505081565b600260009054906101000a900473ffffffffffffffffffffffffffffffffffffffff1681565b6000808411611f0a576040517f08c379a000000000000000000000000000000000000000000000000000000000815260040180806020018281038252603781526020018061356b6037913960400191505060405180910390fd5b600083118015611f1a5750600082115b611f6f576040517f08c379a00000000000000000000000000000000000000000000000000000000081526004018080602001828103825260348152602001806138006034913960400191505060405180910390fd5b6000611f866103e6866131a390919063ffffffff16565b90506000611f9d84836131a390919063ffffffff16565b90506000611fc883611fba6103e8896131a390919063ffffffff16565b61321b90919063ffffffff16565b9050808281611fd357fe5b0493505050509392505050565b606060028251101561203d576040517f08c379a000000000000000000000000000000000000000000000000000000000815260040180806020018281038252602a8152602001806136e9602a913960400191505060405180910390fd5b815167ffffffffffffffff8111801561205557600080fd5b506040519080825280602002602001820160405280156120845781602001602082028036833780820191505090505b509050828160018351038151811061209857fe5b6020026020010181815250506000600183510390505b600081111561213b576000806120ee878660018603815181106120cd57fe5b60200260200101518786815181106120e157fe5b6020026020010151613281565b9150915061211084848151811061210157fe5b60200260200101518383612f82565b84600185038151811061211f57fe5b60200260200101818152505050508080600190039150506120ae565b509392505050565b60008373ffffffffffffffffffffffffffffffffffffffff1663e6a4390584846040518363ffffffff1660e01b8152600401808373ffffffffffffffffffffffffffffffffffffffff1681526020018273ffffffffffffffffffffffffffffffffffffffff1681526020019250505060206040518083038186803b1580156121ca57600080fd5b505afa1580156121de573d6000803e3d6000fd5b505050506040513d60208110156121f457600080fd5b810190808051906020019092919050505090509392505050565b600060608573ffffffffffffffffffffffffffffffffffffffff166323b872dd868686604051602401808473ffffffffffffffffffffffffffffffffffffffff1681526020018373ffffffffffffffffffffffffffffffffffffffff16815260200182815260200193505050506040516020818303038152906040529060e01b6020820180517bffffffffffffffffffffffffffffffffffffffffffffffffffffffff83818316178352505050506040518082805190602001908083835b602083106122ef57805182526020820191506020810190506020830392506122cc565b6001836020036101000a0380198251168184511680821785525050505050509050019150506000604051808303816000865af19150503d8060008114612351576040519150601f19603f3d011682016040523d82523d6000602084013e612356565b606091505b50915091508180156123965750600081511480612395575080806020019051602081101561238357600080fd5b81019080805190602001909291905050505b5b6123eb576040517f08c379a00000000000000000000000000000000000000000000000000000000081526004018080602001828103825260368152602001806138346036913960400191505060405180910390fd5b505050505050565b60005b600183510381101561266a5760008084838151811061241157fe5b602002602001015185600185018151811061242857fe5b602002602001015191509150600061244083836133aa565b509050600087600186018151811061245457fe5b602002602001015190506000808373ffffffffffffffffffffffffffffffffffffffff168673ffffffffffffffffffffffffffffffffffffffff161461249c578260006124a0565b6000835b91509150600060028a510388106124b757886124ed565b6124ec73ee4bc42157cf65291ba2fe839ae127e3cc76f741878c60028c01815181106124df57fe5b6020026020010151612143565b5b905061250e73ee4bc42157cf65291ba2fe839ae127e3cc76f7418888612143565b73ffffffffffffffffffffffffffffffffffffffff1663022c0d9f848484600067ffffffffffffffff8111801561254457600080fd5b506040519080825280601f01601f1916602001820160405280156125775781602001600182028036833780820191505090505b506040518563ffffffff1660e01b8152600401808581526020018481526020018373ffffffffffffffffffffffffffffffffffffffff16815260200180602001828103825283818151815260200191508051906020019080838360005b838110156125ef5780820151818401526020810190506125d4565b50505050905090810190601f16801561261c5780820380516001836020036101000a031916815260200191505b5095505050505050600060405180830381600087803b15801561263e57600080fd5b505af1158015612652573d6000803e3d6000fd5b505050505050505050505080806001019150506123f6565b5060608260008151811061267a57fe5b602002602001015173ffffffffffffffffffffffffffffffffffffffff166395d89b416040518163ffffffff1660e01b815260040160006040518083038186803b1580156126c757600080fd5b505afa1580156126db573d6000803e3d6000fd5b505050506040513d6000823e3d601f19601f82011682018060405250602081101561270557600080fd5b810190808051604051939291908464010000000082111561272557600080fd5b8382019150602082018581111561273b57600080fd5b825186600182028301116401000000008211171561275857600080fd5b8083526020830192505050908051906020019080838360005b8381101561278c578082015181840152602081019050612771565b50505050905090810190601f1680156127b95780820380516001836020036101000a031916815260200191505b5060405250505090506060836001855103815181106127d457fe5b602002602001015173ffffffffffffffffffffffffffffffffffffffff166395d89b416040518163ffffffff1660e01b815260040160006040518083038186803b15801561282157600080fd5b505afa158015612835573d6000803e3d6000fd5b505050506040513d6000823e3d601f19601f82011682018060405250602081101561285f57600080fd5b810190808051604051939291908464010000000082111561287f57600080fd5b8382019150602082018581111561289557600080fd5b82518660018202830111640100000000821117156128b257600080fd5b8083526020830192505050908051906020019080838360005b838110156128e65780820151818401526020810190506128cb565b50505050905090810190601f1680156129135780820380516001836020036101000a031916815260200191505b50604052505050905060008560008151811061292b57fe5b6020026020010151905060008660018851038151811061294757fe5b6020026020010151905060008660008151811061296057fe5b602002602001015173ffffffffffffffffffffffffffffffffffffffff1663313ce5676040518163ffffffff1660e01b815260040160206040518083038186803b1580156129ad57600080fd5b505afa1580156129c1573d6000803e3d6000fd5b505050506040513d60208110156129d757600080fd5b810190808051906020019092919050505060ff1690506000876001895103815181106129ff57fe5b602002602001015173ffffffffffffffffffffffffffffffffffffffff1663313ce5676040518163ffffffff1660e01b815260040160206040518083038186803b158015612a4c57600080fd5b505afa158015612a60573d6000803e3d6000fd5b505050506040513d6020811015612a7657600080fd5b810190808051906020019092919050505060ff169050606060006001548888888888886040516020018080602001898152602001806020018060200188815260200187815260200186815260200185815260200184810384528c818154600181600116156101000203166002900481526020019150805460018160011615610100020316600290048015612b4b5780601f10612b2057610100808354040283529160200191612b4b565b820191906000526020600020905b815481529060010190602001808311612b2e57829003601f168201915b505084810383528a818151815260200191508051906020019080838360005b83811015612b85578082015181840152602081019050612b6a565b50505050905090810190601f168015612bb25780820380516001836020036101000a031916815260200191505b50848103825289818151815260200191508051906020019080838360005b83811015612beb578082015181840152602081019050612bd0565b50505050905090810190601f168015612c185780820380516001836020036101000a031916815260200191505b509b5050505050505050505050506040516020818303038152906040529050600260009054906101000a900473ffffffffffffffffffffffffffffffffffffffff1673ffffffffffffffffffffffffffffffffffffffff1663953bbe14600354836040518363ffffffff1660e01b81526004018083815260200180602001828103825283818151815260200191508051906020019080838360005b83811015612cce578082015181840152602081019050612cb3565b50505050905090810190601f168015612cfb5780820380516001836020036101000a031916815260200191505b509350505050602060405180830381600087803b158015612d1b57600080fd5b505af1158015612d2f573d6000803e3d6000fd5b505050506040513d6020811015612d4557600080fd5b81019080805190602001909291905050505050505050505050505050565b60008273ffffffffffffffffffffffffffffffffffffffff168260405180600001905060006040518083038185875af1925050503d8060008114612dc3576040519150601f19603f3d011682016040523d82523d6000602084013e612dc8565b606091505b5050905080612e22576040517f08c379a00000000000000000000000000000000000000000000000000000000081526004018080602001828103825260348152602001806135a26034913960400191505060405180910390fd5b505050565b6060600282511015612e84576040517f08c379a000000000000000000000000000000000000000000000000000000000815260040180806020018281038252602b815260200180613607602b913960400191505060405180910390fd5b815167ffffffffffffffff81118015612e9c57600080fd5b50604051908082528060200260200182016040528015612ecb5781602001602082028036833780820191505090505b5090508281600081518110612edc57fe5b60200260200101818152505060005b6001835103811015612f7a57600080612f2e87868581518110612f0a57fe5b6020026020010151876001870181518110612f2157fe5b6020026020010151613281565b91509150612f50848481518110612f4157fe5b60200260200101518383611eb0565b846001850181518110612f5f57fe5b60200260200101818152505050508080600101915050612eeb565b509392505050565b6000808411612fdc576040517f08c379a00000000000000000000000000000000000000000000000000000000081526004018080602001828103825260378152602001806138bf6037913960400191505060405180910390fd5b600083118015612fec5750600082115b613041576040517f08c379a00000000000000000000000000000000000000000000000000000000081526004018080602001828103825260338152602001806136876033913960400191505060405180910390fd5b600061306a6103e861305c87876131a390919063ffffffff16565b6131a390919063ffffffff16565b905060006130956103e6613087888761350490919063ffffffff16565b6131a390919063ffffffff16565b90506130b460018284816130a557fe5b0461321b90919063ffffffff16565b925050509392505050565b6000808411613119576040517f08c379a000000000000000000000000000000000000000000000000000000000815260040180806020018281038252602a815260200180613713602a913960400191505060405180910390fd5b6000831180156131295750600082115b61317e576040517f08c379a000000000000000000000000000000000000000000000000000000000815260040180806020018281038252602d81526020018061365a602d913960400191505060405180910390fd5b8261319283866131a390919063ffffffff16565b8161319957fe5b0490509392505050565b6000808214806131c057508282838502925082816131bd57fe5b04145b613215576040517f08c379a00000000000000000000000000000000000000000000000000000000081526004018080602001828103825260238152602001806137dd6023913960400191505060405180910390fd5b92915050565b600082828401915081101561327b576040517f08c379a000000000000000000000000000000000000000000000000000000000815260040180806020018281038252602381526020018061386a6023913960400191505060405180910390fd5b92915050565b600080600061329085856133aa565b5090506000806132a1888888612143565b73ffffffffffffffffffffffffffffffffffffffff16630902f1ac6040518163ffffffff1660e01b815260040160606040518083038186803b1580156132e657600080fd5b505afa1580156132fa573d6000803e3d6000fd5b505050506040513d606081101561331057600080fd5b81019080805190602001909291908051906020019092919080519060200190929190505050506dffffffffffffffffffffffffffff1691506dffffffffffffffffffffffffffff1691508273ffffffffffffffffffffffffffffffffffffffff168773ffffffffffffffffffffffffffffffffffffffff1614613394578082613397565b81815b8095508196505050505050935093915050565b6000808273ffffffffffffffffffffffffffffffffffffffff168473ffffffffffffffffffffffffffffffffffffffff161415613432576040517f08c379a000000000000000000000000000000000000000000000000000000000815260040180806020018281038252602f8152602001806136ba602f913960400191505060405180910390fd5b8273ffffffffffffffffffffffffffffffffffffffff168473ffffffffffffffffffffffffffffffffffffffff161061346c57828461346f565b83835b8092508193505050600073ffffffffffffffffffffffffffffffffffffffff168273ffffffffffffffffffffffffffffffffffffffff1614156134fd576040517f08c379a00000000000000000000000000000000000000000000000000000000081526004018080602001828103825260288152602001806136326028913960400191505060405180910390fd5b9250929050565b6000828284039150811115613564576040517f08c379a00000000000000000000000000000000000000000000000000000000081526004018080602001828103825260248152602001806138f66024913960400191505060405180910390fd5b9291505056fe566572626f73654c6962726172793a3a676574416d6f756e744f75743a20494e53554646494349454e545f494e5055545f414d4f554e545472616e7366657248656c7065723a3a736166655472616e7366657246544d3a2046544d5f5452414e534645525f4641494c4544566572626f7365526f757465723a3a73776170457861637446544d466f72546f6b656e7320494e56414c49445f50415448566572626f73654c6962726172793a3a676574416d6f756e74734f75743a20494e56414c49445f50415448566572626f73654c6962726172793a3a736f7274546f6b656e733a205a45524f5f41444452455353566572626f73654c6962726172793a3a71756f74653a20494e53554646494349454e545f4c4951554944495459566572626f73654c6962726172793a3a676574416d6f756e74496e3a20494e53554646494349454e545f4c4951554944495459566572626f73654c6962726172793a3a736f7274546f6b656e733a204944454e544943414c5f414444524553534553566572626f73654c6962726172793a3a676574416d6f756e7473496e3a20494e56414c49445f50415448566572626f73654c6962726172793a3a71756f74653a20494e53554646494349454e545f414d4f554e54566572626f7365526f757465723a3a737761704578616374546f6b656e73466f7246544d3a20494e56414c49445f50415448566572626f7365526f757465723a3a73776170546f6b656e73466f72457861637446544d3a20494e56414c49445f50415448566572626f7365526f757465723a3a7377617046544d466f724578616374546f6b656e733a204558434553534956455f494e5055545f414d4f554e54536166654d6174683a3a6d756c3a2064732d6d6174682d6d756c2d6f766572666c6f77566572626f73654c6962726172793a3a676574416d6f756e744f75743a20494e53554646494349454e545f4c49515549444954595472616e7366657248656c7065723a3a736166655472616e7366657246726f6d3a205452414e534645525f46524f4d5f4641494c4544536166654d6174683a3a6164643a2064732d6d6174682d6164642d6f766572666c6f77566572626f7365526f757465723a3a7377617046544d466f724578616374546f6b656e733a20494e56414c49445f50415448566572626f73654c6962726172793a3a676574416d6f756e74496e3a20494e53554646494349454e545f4f55545055545f414d4f554e54536166654d6174683a3a7375623a2064732d6d6174682d7375622d756e646572666c6f77a2646970667358221220edd76a45f05ecd67bc7e714a18a029736092be830e4a28afd6e236331c9b69d764736f6c634300060c0033363239353434383833323a414146425f30734d5f503331516a796c5f503154766c667a645569704c4238694e756f",
  "linkReferences": {},
  "deployedLinkReferences": {}
}